{
  "_format": "hh-sol-artifact-1",
  "contractName": "RandomEmitter",
  "sourceName": "contracts/RandomEmitter.sol",
  "abi": [
    {
      "inputs": [
        {
          "internalType": "address",
          "name": "_vrfCoordinator",
          "type": "address"
        },
        {
          "internalType": "address",
          "name": "_linkToken",
          "type": "address"
        },
        {
          "internalType": "bytes32",
          "name": "_keyHash",
          "type": "bytes32"
        }
      ],
      "stateMutability": "nonpayable",
      "type": "constructor"
    },
    {
      "anonymous": false,
      "inputs": [
        {
          "indexed": false,
          "internalType": "uint256",
          "name": "randomNumber",
          "type": "uint256"
        }
      ],
      "name": "RandomNumber",
      "type": "event"
    },
    {
      "anonymous": false,
      "inputs": [
        {
          "indexed": false,
          "internalType": "bytes32",
          "name": "requestId",
          "type": "bytes32"
        }
      ],
      "name": "Request",
      "type": "event"
    },
    {
      "inputs": [],
      "name": "contractNumber",
      "outputs": [
        {
          "internalType": "uint256",
          "name": "",
          "type": "uint256"
        }
      ],
      "stateMutability": "view",
      "type": "function"
    },
    {
      "inputs": [],
      "name": "currentRequestId",
      "outputs": [
        {
          "internalType": "bytes32",
          "name": "",
          "type": "bytes32"
        }
      ],
      "stateMutability": "view",
      "type": "function"
    },
    {
      "inputs": [],
      "name": "owner",
      "outputs": [
        {
          "internalType": "address",
          "name": "",
          "type": "address"
        }
      ],
      "stateMutability": "view",
      "type": "function"
    },
    {
      "inputs": [
        {
          "internalType": "bytes32",
          "name": "requestId",
          "type": "bytes32"
        },
        {
          "internalType": "uint256",
          "name": "randomness",
          "type": "uint256"
        }
      ],
      "name": "rawFulfillRandomness",
      "outputs": [],
      "stateMutability": "nonpayable",
      "type": "function"
    },
    {
      "inputs": [],
      "name": "requestRandomNumber",
      "outputs": [],
      "stateMutability": "nonpayable",
      "type": "function"
    }
  ],
  "bytecode": "0x60c0604052600060015534801561001557600080fd5b5060405162000c7238038062000c7283398181016040528101906100399190610125565b82828173ffffffffffffffffffffffffffffffffffffffff1660a08173ffffffffffffffffffffffffffffffffffffffff1660601b815250508073ffffffffffffffffffffffffffffffffffffffff1660808173ffffffffffffffffffffffffffffffffffffffff1660601b81525050505033600260006101000a81548173ffffffffffffffffffffffffffffffffffffffff021916908373ffffffffffffffffffffffffffffffffffffffff160217905550806003819055505050506101de565b60008151905061010a816101b0565b92915050565b60008151905061011f816101c7565b92915050565b60008060006060848603121561013a57600080fd5b6000610148868287016100fb565b9350506020610159868287016100fb565b925050604061016a86828701610110565b9150509250925092565b600061017f82610190565b9050919050565b6000819050919050565b600073ffffffffffffffffffffffffffffffffffffffff82169050919050565b6101b981610174565b81146101c457600080fd5b50565b6101d081610186565b81146101db57600080fd5b50565b60805160601c60a05160601c610a6162000211600039600081816101f001526102d0015260006102940152610a616000f3fe608060405234801561001057600080fd5b50600436106100575760003560e01c80635ae2bfdb1461005c5780638678a7b21461007a5780638da5cb5b1461008457806394985ddd146100a2578063cbfbcc17146100be575b600080fd5b6100646100dc565b6040516100719190610786565b60405180910390f35b6100826100e2565b005b61008c6101c8565b604051610099919061072d565b60405180910390f35b6100bc60048036038101906100b7919061054b565b6101ee565b005b6100c661028a565b6040516100d3919061086f565b60405180910390f35b60045481565b600260009054906101000a900473ffffffffffffffffffffffffffffffffffffffff1673ffffffffffffffffffffffffffffffffffffffff163373ffffffffffffffffffffffffffffffffffffffff1614610172576040517f08c379a00000000000000000000000000000000000000000000000000000000081526004016101699061084f565b60405180910390fd5b61018760035467016345785d8a000043610290565b6004819055507f6f2c84d547103c34c868d8ad161cf5c513d18a7d50d65e15d16be17707f461ba6004546040516101be9190610786565b60405180910390a1565b600260009054906101000a900473ffffffffffffffffffffffffffffffffffffffff1681565b7f000000000000000000000000000000000000000000000000000000000000000073ffffffffffffffffffffffffffffffffffffffff163373ffffffffffffffffffffffffffffffffffffffff161461027c576040517f08c379a00000000000000000000000000000000000000000000000000000000081526004016102739061082f565b60405180910390fd5b61028682826103ee565b5050565b60015481565b60007f000000000000000000000000000000000000000000000000000000000000000073ffffffffffffffffffffffffffffffffffffffff16634000aea07f00000000000000000000000000000000000000000000000000000000000000008587866040516020016103039291906107a1565b6040516020818303038152906040526040518463ffffffff1660e01b815260040161033093929190610748565b602060405180830381600087803b15801561034a57600080fd5b505af115801561035e573d6000803e3d6000fd5b505050506040513d601f19601f820116820180604052508101906103829190610522565b5060006103a38584306000808a815260200190815260200160002054610474565b90506001600080878152602001908152602001600020546103c491906108b7565b600080878152602001908152602001600020819055506103e485826104b0565b9150509392505050565b6004548214610432576040517f08c379a00000000000000000000000000000000000000000000000000000000081526004016104299061080f565b60405180910390fd5b806001819055507fec6cdc8e735e4069f6e89062582f3e5532a8e71373e7ef2962fa916cf2af21f281604051610468919061086f565b60405180910390a15050565b60008484848460405160200161048d94939291906107ca565b6040516020818303038152906040528051906020012060001c9050949350505050565b600082826040516020016104c5929190610701565b60405160208183030381529060405280519060200120905092915050565b6000815190506104f2816109e6565b92915050565b600081359050610507816109fd565b92915050565b60008135905061051c81610a14565b92915050565b60006020828403121561053457600080fd5b6000610542848285016104e3565b91505092915050565b6000806040838503121561055e57600080fd5b600061056c858286016104f8565b925050602061057d8582860161050d565b9150509250929050565b6105908161090d565b82525050565b61059f8161092b565b82525050565b6105b66105b18261092b565b610992565b82525050565b60006105c78261088a565b6105d18185610895565b93506105e181856020860161095f565b6105ea816109d5565b840191505092915050565b60006106026019836108a6565b91507f5468652072657175657374496420697320696e76616c69642e000000000000006000830152602082019050919050565b6000610642601f836108a6565b91507f4f6e6c7920565246436f6f7264696e61746f722063616e2066756c66696c6c006000830152602082019050919050565b6000610682602f836108a6565b91507f4f6e6c7920746865206f776e65722063616e207265717565737420666f72206160008301527f2072616e646f6d206e756d6265722e00000000000000000000000000000000006020830152604082019050919050565b6106e481610955565b82525050565b6106fb6106f682610955565b61099c565b82525050565b600061070d82856105a5565b60208201915061071d82846106ea565b6020820191508190509392505050565b60006020820190506107426000830184610587565b92915050565b600060608201905061075d6000830186610587565b61076a60208301856106db565b818103604083015261077c81846105bc565b9050949350505050565b600060208201905061079b6000830184610596565b92915050565b60006040820190506107b66000830185610596565b6107c360208301846106db565b9392505050565b60006080820190506107df6000830187610596565b6107ec60208301866106db565b6107f96040830185610587565b61080660608301846106db565b95945050505050565b60006020820190508181036000830152610828816105f5565b9050919050565b6000602082019050818103600083015261084881610635565b9050919050565b6000602082019050818103600083015261086881610675565b9050919050565b600060208201905061088460008301846106db565b92915050565b600081519050919050565b600082825260208201905092915050565b600082825260208201905092915050565b60006108c282610955565b91506108cd83610955565b9250827fffffffffffffffffffffffffffffffffffffffffffffffffffffffffffffffff03821115610902576109016109a6565b5b828201905092915050565b600061091882610935565b9050919050565b60008115159050919050565b6000819050919050565b600073ffffffffffffffffffffffffffffffffffffffff82169050919050565b6000819050919050565b60005b8381101561097d578082015181840152602081019050610962565b8381111561098c576000848401525b50505050565b6000819050919050565b6000819050919050565b7f4e487b7100000000000000000000000000000000000000000000000000000000600052601160045260246000fd5b6000601f19601f8301169050919050565b6109ef8161091f565b81146109fa57600080fd5b50565b610a068161092b565b8114610a1157600080fd5b50565b610a1d81610955565b8114610a2857600080fd5b5056fea26469706673582212207faeb817319328f12063bf263aaade4664d00a3055209898f154fa11191f633f64736f6c63430008000033",
  "linkReferences": {},
  "deployedLinkReferences": {}
}